:04000000803114280F
:100008007E1480314E01161E0A280B2812280C1E59
:100018000E280F28122880318A2080317E1009008E
:10002800803116287E104001803147284001980110
:1000380099019A013B309200F0309300FF30940010
:1000480033307E01B800F030C300FF30CE00B90174
:10005800C401CF01BA01C501D0013730BB00F0306F
:10006800C600FF30D1003F30BC00F030C700FF3081
:10007800D200BD01BE01BF01C801C901CA01D30137
:10008800D401D50108008031722080314001121559
:100098000630F3001330F200AE30890B5128F20B12
:1000A8005128F30B5128400112110630F300133088
:1000B800F200AE30890B5E28F20B5E28F30B5E2847
:1000C8004A28803114284E010C100B140030F0001F
:1000D8000030F100803185208031080080317C209B
:1000E800803180311A2080318031672080310800CA
:1000F80051018E014030910002309300900192012D
:0E01080008007108F5007008F40008000800F7
:020000040001F9
:04000E00CD3FE73FBC
:04001400FF3FFF3F6C
:00000001FF
