:020000040000FA
:08000000803102288731FD2F39
:100F4C0050018C010800510191019301920108009C
:100F5C008731D82787318731A92787318731A62751
:100F6C00873108008731AE278731400112150230D6
:100F7C00F1004530F000AA30890BC22FF00BC22FC4
:100F8C00F10BC22F400112110230F1004530F0007C
:100F9C00AA30890BCF2FF00BCF2FF10BCF2FBB2FFC
:100FAC00803102284001980199019A013B3092004E
:100FBC00F0309300FF309400FF307E01CE00F03013
:100FCC00C3003330B800C401B901CF010430BA00FA
:100FDC00C501D0013730BB00F030C600FF30D10066
:100FEC003F30BC00F030C700FF30D2000800400199
:040FFC008731B82F52
:020000040001F9
:04000E00ED3FE73F9C
:04001400FF3FFF3F6C
:00000001FF
